{
  "_format": "hh-sol-artifact-1",
  "contractName": "ProofValidator",
  "sourceName": "contracts/ProofValidator.sol",
  "abi": [
    {
      "inputs": [
        {
          "internalType": "address",
          "name": "_agent",
          "type": "address"
        },
        {
          "internalType": "uint256",
          "name": "_minimumFee",
          "type": "uint256"
        }
      ],
      "stateMutability": "nonpayable",
      "type": "constructor"
    },
    {
      "anonymous": false,
      "inputs": [
        {
          "indexed": true,
          "internalType": "uint256",
          "name": "requestId",
          "type": "uint256"
        },
        {
          "indexed": true,
          "internalType": "address",
          "name": "requester",
          "type": "address"
        }
      ],
      "name": "AuditCancelled",
      "type": "event"
    },
    {
      "anonymous": false,
      "inputs": [
        {
          "indexed": true,
          "internalType": "uint256",
          "name": "requestId",
          "type": "uint256"
        },
        {
          "indexed": true,
          "internalType": "address",
          "name": "requester",
          "type": "address"
        },
        {
          "indexed": false,
          "internalType": "bytes32",
          "name": "resultHash",
          "type": "bytes32"
        },
        {
          "indexed": false,
          "internalType": "uint256",
          "name": "payout",
          "type": "uint256"
        }
      ],
      "name": "AuditCompleted",
      "type": "event"
    },
    {
      "anonymous": false,
      "inputs": [
        {
          "indexed": true,
          "internalType": "uint256",
          "name": "requestId",
          "type": "uint256"
        },
        {
          "indexed": true,
          "internalType": "address",
          "name": "requester",
          "type": "address"
        },
        {
          "indexed": false,
          "internalType": "string",
          "name": "prompt",
          "type": "string"
        },
        {
          "indexed": false,
          "internalType": "uint256",
          "name": "deposit",
          "type": "uint256"
        }
      ],
      "name": "AuditRequested",
      "type": "event"
    },
    {
      "anonymous": false,
      "inputs": [
        {
          "indexed": true,
          "internalType": "bytes32",
          "name": "proofId",
          "type": "bytes32"
        },
        {
          "indexed": false,
          "internalType": "address",
          "name": "submitter",
          "type": "address"
        },
        {
          "indexed": false,
          "internalType": "string",
          "name": "taskId",
          "type": "string"
        }
      ],
      "name": "ProofRegistered",
      "type": "event"
    },
    {
      "anonymous": false,
      "inputs": [
        {
          "indexed": true,
          "internalType": "bytes32",
          "name": "proofId",
          "type": "bytes32"
        }
      ],
      "name": "ProofValidated",
      "type": "event"
    },
    {
      "inputs": [
        {
          "internalType": "uint256",
          "name": "",
          "type": "uint256"
        }
      ],
      "name": "auditRequests",
      "outputs": [
        {
          "internalType": "uint256",
          "name": "id",
          "type": "uint256"
        },
        {
          "internalType": "address",
          "name": "requester",
          "type": "address"
        },
        {
          "internalType": "string",
          "name": "prompt",
          "type": "string"
        },
        {
          "internalType": "uint256",
          "name": "deposit",
          "type": "uint256"
        },
        {
          "internalType": "uint256",
          "name": "createdAt",
          "type": "uint256"
        },
        {
          "internalType": "enum ProofValidator.RequestStatus",
          "name": "status",
          "type": "uint8"
        },
        {
          "internalType": "bytes32",
          "name": "resultHash",
          "type": "bytes32"
        },
        {
          "internalType": "uint256",
          "name": "completedAt",
          "type": "uint256"
        }
      ],
      "stateMutability": "view",
      "type": "function"
    },
    {
      "inputs": [],
      "name": "authorizedAgent",
      "outputs": [
        {
          "internalType": "address",
          "name": "",
          "type": "address"
        }
      ],
      "stateMutability": "view",
      "type": "function"
    },
    {
      "inputs": [
        {
          "internalType": "uint256",
          "name": "requestId",
          "type": "uint256"
        }
      ],
      "name": "cancelAudit",
      "outputs": [],
      "stateMutability": "nonpayable",
      "type": "function"
    },
    {
      "inputs": [
        {
          "internalType": "uint256",
          "name": "requestId",
          "type": "uint256"
        }
      ],
      "name": "getAuditRequest",
      "outputs": [
        {
          "components": [
            {
              "internalType": "uint256",
              "name": "id",
              "type": "uint256"
            },
            {
              "internalType": "address",
              "name": "requester",
              "type": "address"
            },
            {
              "internalType": "string",
              "name": "prompt",
              "type": "string"
            },
            {
              "internalType": "uint256",
              "name": "deposit",
              "type": "uint256"
            },
            {
              "internalType": "uint256",
              "name": "createdAt",
              "type": "uint256"
            },
            {
              "internalType": "enum ProofValidator.RequestStatus",
              "name": "status",
              "type": "uint8"
            },
            {
              "internalType": "bytes32",
              "name": "resultHash",
              "type": "bytes32"
            },
            {
              "internalType": "uint256",
              "name": "completedAt",
              "type": "uint256"
            }
          ],
          "internalType": "struct ProofValidator.AuditRequest",
          "name": "",
          "type": "tuple"
        }
      ],
      "stateMutability": "view",
      "type": "function"
    },
    {
      "inputs": [
        {
          "internalType": "bytes32",
          "name": "proofId",
          "type": "bytes32"
        }
      ],
      "name": "getProof",
      "outputs": [
        {
          "components": [
            {
              "internalType": "address",
              "name": "submitter",
              "type": "address"
            },
            {
              "internalType": "string",
              "name": "taskId",
              "type": "string"
            },
            {
              "internalType": "bytes32",
              "name": "resultHash",
              "type": "bytes32"
            },
            {
              "internalType": "uint256",
              "name": "timestamp",
              "type": "uint256"
            },
            {
              "internalType": "bool",
              "name": "validated",
              "type": "bool"
            }
          ],
          "internalType": "struct ProofValidator.Proof",
          "name": "",
          "type": "tuple"
        }
      ],
      "stateMutability": "view",
      "type": "function"
    },
    {
      "inputs": [
        {
          "internalType": "address",
          "name": "user",
          "type": "address"
        }
      ],
      "name": "getRepScore",
      "outputs": [
        {
          "internalType": "uint256",
          "name": "",
          "type": "uint256"
        }
      ],
      "stateMutability": "view",
      "type": "function"
    },
    {
      "inputs": [],
      "name": "minimumFee",
      "outputs": [
        {
          "internalType": "uint256",
          "name": "",
          "type": "uint256"
        }
      ],
      "stateMutability": "view",
      "type": "function"
    },
    {
      "inputs": [],
      "name": "nextRequestId",
      "outputs": [
        {
          "internalType": "uint256",
          "name": "",
          "type": "uint256"
        }
      ],
      "stateMutability": "view",
      "type": "function"
    },
    {
      "inputs": [],
      "name": "owner",
      "outputs": [
        {
          "internalType": "address",
          "name": "",
          "type": "address"
        }
      ],
      "stateMutability": "view",
      "type": "function"
    },
    {
      "inputs": [
        {
          "internalType": "bytes32",
          "name": "",
          "type": "bytes32"
        }
      ],
      "name": "proofs",
      "outputs": [
        {
          "internalType": "address",
          "name": "submitter",
          "type": "address"
        },
        {
          "internalType": "string",
          "name": "taskId",
          "type": "string"
        },
        {
          "internalType": "bytes32",
          "name": "resultHash",
          "type": "bytes32"
        },
        {
          "internalType": "uint256",
          "name": "timestamp",
          "type": "uint256"
        },
        {
          "internalType": "bool",
          "name": "validated",
          "type": "bool"
        }
      ],
      "stateMutability": "view",
      "type": "function"
    },
    {
      "inputs": [
        {
          "internalType": "string",
          "name": "taskId",
          "type": "string"
        },
        {
          "internalType": "bytes32",
          "name": "resultHash",
          "type": "bytes32"
        }
      ],
      "name": "registerProof",
      "outputs": [
        {
          "internalType": "bytes32",
          "name": "",
          "type": "bytes32"
        }
      ],
      "stateMutability": "nonpayable",
      "type": "function"
    },
    {
      "inputs": [
        {
          "internalType": "string",
          "name": "prompt",
          "type": "string"
        }
      ],
      "name": "requestAudit",
      "outputs": [
        {
          "internalType": "uint256",
          "name": "",
          "type": "uint256"
        }
      ],
      "stateMutability": "payable",
      "type": "function"
    },
    {
      "inputs": [
        {
          "internalType": "address",
          "name": "_agent",
          "type": "address"
        }
      ],
      "name": "setAgent",
      "outputs": [],
      "stateMutability": "nonpayable",
      "type": "function"
    },
    {
      "inputs": [
        {
          "internalType": "uint256",
          "name": "_fee",
          "type": "uint256"
        }
      ],
      "name": "setMinimumFee",
      "outputs": [],
      "stateMutability": "nonpayable",
      "type": "function"
    },
    {
      "inputs": [
        {
          "internalType": "uint256",
          "name": "requestId",
          "type": "uint256"
        },
        {
          "internalType": "bytes32",
          "name": "resultHash",
          "type": "bytes32"
        }
      ],
      "name": "submitResult",
      "outputs": [],
      "stateMutability": "nonpayable",
      "type": "function"
    },
    {
      "inputs": [
        {
          "internalType": "address",
          "name": "",
          "type": "address"
        }
      ],
      "name": "userAuditCount",
      "outputs": [
        {
          "internalType": "uint256",
          "name": "",
          "type": "uint256"
        }
      ],
      "stateMutability": "view",
      "type": "function"
    },
    {
      "inputs": [
        {
          "internalType": "address",
          "name": "",
          "type": "address"
        }
      ],
      "name": "userValidationCount",
      "outputs": [
        {
          "internalType": "uint256",
          "name": "",
          "type": "uint256"
        }
      ],
      "stateMutability": "view",
      "type": "function"
    },
    {
      "inputs": [
        {
          "internalType": "bytes32",
          "name": "proofId",
          "type": "bytes32"
        }
      ],
      "name": "validateProof",
      "outputs": [],
      "stateMutability": "nonpayable",
      "type": "function"
    }
  ],
  "bytecode": "0x60806040523480156200001157600080fd5b5060405162002bcf38038062002bcf833981810160405281019062000037919062000174565b336000806101000a81548173ffffffffffffffffffffffffffffffffffffffff021916908373ffffffffffffffffffffffffffffffffffffffff16021790555081600160006101000a81548173ffffffffffffffffffffffffffffffffffffffff021916908373ffffffffffffffffffffffffffffffffffffffff1602179055508060028190555060016003819055505050620001bb565b600080fd5b600073ffffffffffffffffffffffffffffffffffffffff82169050919050565b60006200010182620000d4565b9050919050565b6200011381620000f4565b81146200011f57600080fd5b50565b600081519050620001338162000108565b92915050565b6000819050919050565b6200014e8162000139565b81146200015a57600080fd5b50565b6000815190506200016e8162000143565b92915050565b600080604083850312156200018e576200018d620000cf565b5b60006200019e8582860162000122565b9250506020620001b1858286016200015d565b9150509250929050565b612a0480620001cb6000396000f3fe6080604052600436106101095760003560e01c80638da5cb5b11610095578063cce79d9111610064578063cce79d911461039f578063d2ee66cf146103dc578063d5fd90c314610405578063dd435b1614610442578063e2098e2b1461047f57610109565b80638da5cb5b146102d1578063a38a20fe146102fc578063ab1c155314610339578063bcf685ed1461037657610109565b80631b80bb3a116100dc5780631b80bb3a146101cf578063444d95b01461020c5780636a84a9851461024d578063714c3cc11461027857806380ffa69d146102a857610109565b806311fc68791461010e5780631396b79e14610137578063182a75061461017b5780631a7626e7146101a4575b600080fd5b34801561011a57600080fd5b50610135600480360381019061013091906117e8565b6104aa565b005b34801561014357600080fd5b5061015e600480360381019061015991906117e8565b6106f1565b604051610172989796959493929190611985565b60405180910390f35b34801561018757600080fd5b506101a2600480360381019061019d91906117e8565b6107ee565b005b3480156101b057600080fd5b506101b9610886565b6040516101c69190611a0a565b60405180910390f35b3480156101db57600080fd5b506101f660048036038101906101f19190611a51565b61088c565b6040516102039190611b86565b60405180910390f35b34801561021857600080fd5b50610233600480360381019061022e9190611a51565b6109d0565b604051610244959493929190611bb7565b60405180910390f35b34801561025957600080fd5b50610262610abb565b60405161026f9190611a0a565b60405180910390f35b610292600480360381019061028d9190611c76565b610ac1565b60405161029f9190611a0a565b60405180910390f35b3480156102b457600080fd5b506102cf60048036038101906102ca9190611a51565b610d55565b005b3480156102dd57600080fd5b506102e6610efe565b6040516102f39190611cc3565b60405180910390f35b34801561030857600080fd5b50610323600480360381019061031e9190611d0a565b610f22565b6040516103309190611a0a565b60405180910390f35b34801561034557600080fd5b50610360600480360381019061035b9190611d0a565b610f3a565b60405161036d9190611a0a565b60405180910390f35b34801561038257600080fd5b5061039d60048036038101906103989190611d0a565b610f52565b005b3480156103ab57600080fd5b506103c660048036038101906103c191906117e8565b611024565b6040516103d39190611df6565b60405180910390f35b3480156103e857600080fd5b5061040360048036038101906103fe9190611e18565b6111a7565b005b34801561041157600080fd5b5061042c60048036038101906104279190611f88565b611518565b6040516104399190611fe4565b60405180910390f35b34801561044e57600080fd5b5061046960048036038101906104649190611d0a565b611675565b6040516104769190611a0a565b60405180910390f35b34801561048b57600080fd5b506104946116be565b6040516104a19190611cc3565b60405180910390f35b60006004600083815260200190815260200160002090503373ffffffffffffffffffffffffffffffffffffffff168160010160009054906101000a900473ffffffffffffffffffffffffffffffffffffffff1673ffffffffffffffffffffffffffffffffffffffff1614610553576040517f08c379a000000000000000000000000000000000000000000000000000000000815260040161054a9061204b565b60405180910390fd5b60006002811115610567576105666118f5565b5b8160050160009054906101000a900460ff16600281111561058b5761058a6118f5565b5b146105cb576040517f08c379a00000000000000000000000000000000000000000000000000000000081526004016105c2906120b7565b60405180910390fd5b60028160050160006101000a81548160ff021916908360028111156105f3576105f26118f5565b5b021790555060003373ffffffffffffffffffffffffffffffffffffffff16826003015460405161062290612108565b60006040518083038185875af1925050503d806000811461065f576040519150601f19603f3d011682016040523d82523d6000602084013e610664565b606091505b50509050806106a8576040517f08c379a000000000000000000000000000000000000000000000000000000000815260040161069f90612169565b60405180910390fd5b3373ffffffffffffffffffffffffffffffffffffffff16837feb8aac53c73a6f707d753b23fbac05afb92dbeb3eb328854b9bec8c4f8f8cf4060405160405180910390a3505050565b60046020528060005260406000206000915090508060000154908060010160009054906101000a900473ffffffffffffffffffffffffffffffffffffffff1690806002018054610740906121b8565b80601f016020809104026020016040519081016040528092919081815260200182805461076c906121b8565b80156107b95780601f1061078e576101008083540402835291602001916107b9565b820191906000526020600020905b81548152906001019060200180831161079c57829003601f168201915b5050505050908060030154908060040154908060050160009054906101000a900460ff16908060060154908060070154905088565b60008054906101000a900473ffffffffffffffffffffffffffffffffffffffff1673ffffffffffffffffffffffffffffffffffffffff163373ffffffffffffffffffffffffffffffffffffffff161461087c576040517f08c379a000000000000000000000000000000000000000000000000000000000815260040161087390612235565b60405180910390fd5b8060028190555050565b60025481565b6108946116e4565b600560008381526020019081526020016000206040518060a00160405290816000820160009054906101000a900473ffffffffffffffffffffffffffffffffffffffff1673ffffffffffffffffffffffffffffffffffffffff1673ffffffffffffffffffffffffffffffffffffffff168152602001600182018054610918906121b8565b80601f0160208091040260200160405190810160405280929190818152602001828054610944906121b8565b80156109915780601f1061096657610100808354040283529160200191610991565b820191906000526020600020905b81548152906001019060200180831161097457829003601f168201915b5050505050815260200160028201548152602001600382015481526020016004820160009054906101000a900460ff1615151515815250509050919050565b60056020528060005260406000206000915090508060000160009054906101000a900473ffffffffffffffffffffffffffffffffffffffff1690806001018054610a19906121b8565b80601f0160208091040260200160405190810160405280929190818152602001828054610a45906121b8565b8015610a925780601f10610a6757610100808354040283529160200191610a92565b820191906000526020600020905b815481529060010190602001808311610a7557829003601f168201915b5050505050908060020154908060030154908060040160009054906101000a900460ff16905085565b60035481565b6000808383905011610b08576040517f08c379a0000000000000000000000000000000000000000000000000000000008152600401610aff906122a1565b60405180910390fd5b600060036000815480929190610b1d906122f0565b9190505590506040518061010001604052808281526020013373ffffffffffffffffffffffffffffffffffffffff16815260200185858080601f016020809104026020016040519081016040528093929190818152602001838380828437600081840152601f19601f82011690508083019250505050505050815260200134815260200142815260200160006002811115610bbb57610bba6118f5565b5b81526020016000801b81526020016000815250600460008381526020019081526020016000206000820151816000015560208201518160010160006101000a81548173ffffffffffffffffffffffffffffffffffffffff021916908373ffffffffffffffffffffffffffffffffffffffff1602179055506040820151816002019081610c4791906124e4565b50606082015181600301556080820151816004015560a08201518160050160006101000a81548160ff02191690836002811115610c8757610c866118f5565b5b021790555060c0820151816006015560e08201518160070155905050600760003373ffffffffffffffffffffffffffffffffffffffff1673ffffffffffffffffffffffffffffffffffffffff1681526020019081526020016000206000815480929190610cf3906122f0565b91905055503373ffffffffffffffffffffffffffffffffffffffff16817fbdd0048372cb4abed4d5057bf1e07f114bc3f58340b811b2762d05ce5413f248868634604051610d43939291906125e3565b60405180910390a38091505092915050565b6005600082815260200190815260200160002060040160009054906101000a900460ff1615610db9576040517f08c379a0000000000000000000000000000000000000000000000000000000008152600401610db090612661565b60405180910390fd5b6000600560008381526020019081526020016000206003015403610e12576040517f08c379a0000000000000000000000000000000000000000000000000000000008152600401610e09906126cd565b60405180910390fd5b60016005600083815260200190815260200160002060040160006101000a81548160ff0219169083151502179055506001600660006005600085815260200190815260200160002060000160009054906101000a900473ffffffffffffffffffffffffffffffffffffffff1673ffffffffffffffffffffffffffffffffffffffff1673ffffffffffffffffffffffffffffffffffffffff1681526020019081526020016000206000828254610ec791906126ed565b92505081905550807f1c88088eeda02b407bb426b79c1558c398d9a1edffe0a23e9e49a68b3939496360405160405180910390a250565b60008054906101000a900473ffffffffffffffffffffffffffffffffffffffff1681565b60066020528060005260406000206000915090505481565b60076020528060005260406000206000915090505481565b60008054906101000a900473ffffffffffffffffffffffffffffffffffffffff1673ffffffffffffffffffffffffffffffffffffffff163373ffffffffffffffffffffffffffffffffffffffff1614610fe0576040517f08c379a0000000000000000000000000000000000000000000000000000000008152600401610fd790612235565b60405180910390fd5b80600160006101000a81548173ffffffffffffffffffffffffffffffffffffffff021916908373ffffffffffffffffffffffffffffffffffffffff16021790555050565b61102c61172e565b6004600083815260200190815260200160002060405180610100016040529081600082015481526020016001820160009054906101000a900473ffffffffffffffffffffffffffffffffffffffff1673ffffffffffffffffffffffffffffffffffffffff1673ffffffffffffffffffffffffffffffffffffffff1681526020016002820180546110bb906121b8565b80601f01602080910402602001604051908101604052809291908181526020018280546110e7906121b8565b80156111345780601f1061110957610100808354040283529160200191611134565b820191906000526020600020905b81548152906001019060200180831161111757829003601f168201915b5050505050815260200160038201548152602001600482015481526020016005820160009054906101000a900460ff166002811115611176576111756118f5565b5b6002811115611188576111876118f5565b5b8152602001600682015481526020016007820154815250509050919050565b600160009054906101000a900473ffffffffffffffffffffffffffffffffffffffff1673ffffffffffffffffffffffffffffffffffffffff163373ffffffffffffffffffffffffffffffffffffffff1614611237576040517f08c379a000000000000000000000000000000000000000000000000000000000815260040161122e9061276d565b60405180910390fd5b600060046000848152602001908152602001600020905060006002811115611262576112616118f5565b5b8160050160009054906101000a900460ff166002811115611286576112856118f5565b5b146112c6576040517f08c379a00000000000000000000000000000000000000000000000000000000081526004016112bd906120b7565b60405180910390fd5b600081600301541161130d576040517f08c379a0000000000000000000000000000000000000000000000000000000008152600401611304906127d9565b60405180910390fd5b60018160050160006101000a81548160ff02191690836002811115611335576113346118f5565b5b0217905550818160060181905550428160070181905550600660008260010160009054906101000a900473ffffffffffffffffffffffffffffffffffffffff1673ffffffffffffffffffffffffffffffffffffffff1673ffffffffffffffffffffffffffffffffffffffff16815260200190815260200160002060008154809291906113c0906122f0565b91905055506000816003015490506000600160009054906101000a900473ffffffffffffffffffffffffffffffffffffffff1673ffffffffffffffffffffffffffffffffffffffff168260405161141690612108565b60006040518083038185875af1925050503d8060008114611453576040519150601f19603f3d011682016040523d82523d6000602084013e611458565b606091505b505090508061149c576040517f08c379a000000000000000000000000000000000000000000000000000000000815260040161149390612845565b60405180910390fd5b8260010160009054906101000a900473ffffffffffffffffffffffffffffffffffffffff1673ffffffffffffffffffffffffffffffffffffffff16857f908e873ece69863e71b1d2c4d6f73b9dc85e11858b246156267ddc6e287c8b698685604051611509929190612865565b60405180910390a35050505050565b600080338484426040516020016115329493929190612954565b6040516020818303038152906040528051906020012090506040518060a001604052803373ffffffffffffffffffffffffffffffffffffffff168152602001858152602001848152602001428152602001600015158152506005600083815260200190815260200160002060008201518160000160006101000a81548173ffffffffffffffffffffffffffffffffffffffff021916908373ffffffffffffffffffffffffffffffffffffffff16021790555060208201518160010190816115f991906124e4565b50604082015181600201556060820151816003015560808201518160040160006101000a81548160ff021916908315150217905550905050807ff7fa29cfb9fe9dfdd5e0f30b31f8b9e93f295ae4ac0d4fdc111263c5907023bb338660405161166392919061299e565b60405180910390a28091505092915050565b6000600660008373ffffffffffffffffffffffffffffffffffffffff1673ffffffffffffffffffffffffffffffffffffffff168152602001908152602001600020549050919050565b600160009054906101000a900473ffffffffffffffffffffffffffffffffffffffff1681565b6040518060a00160405280600073ffffffffffffffffffffffffffffffffffffffff1681526020016060815260200160008019168152602001600081526020016000151581525090565b60405180610100016040528060008152602001600073ffffffffffffffffffffffffffffffffffffffff16815260200160608152602001600081526020016000815260200160006002811115611787576117866118f5565b5b815260200160008019168152602001600081525090565b6000604051905090565b600080fd5b600080fd5b6000819050919050565b6117c5816117b2565b81146117d057600080fd5b50565b6000813590506117e2816117bc565b92915050565b6000602082840312156117fe576117fd6117a8565b5b600061180c848285016117d3565b91505092915050565b61181e816117b2565b82525050565b600073ffffffffffffffffffffffffffffffffffffffff82169050919050565b600061184f82611824565b9050919050565b61185f81611844565b82525050565b600081519050919050565b600082825260208201905092915050565b60005b8381101561189f578082015181840152602081019050611884565b60008484015250505050565b6000601f19601f8301169050919050565b60006118c782611865565b6118d18185611870565b93506118e1818560208601611881565b6118ea816118ab565b840191505092915050565b7f4e487b7100000000000000000000000000000000000000000000000000000000600052602160045260246000fd5b60038110611935576119346118f5565b5b50565b600081905061194682611924565b919050565b600061195682611938565b9050919050565b6119668161194b565b82525050565b6000819050919050565b61197f8161196c565b82525050565b60006101008201905061199b600083018b611815565b6119a8602083018a611856565b81810360408301526119ba81896118bc565b90506119c96060830188611815565b6119d66080830187611815565b6119e360a083018661195d565b6119f060c0830185611976565b6119fd60e0830184611815565b9998505050505050505050565b6000602082019050611a1f6000830184611815565b92915050565b611a2e8161196c565b8114611a3957600080fd5b50565b600081359050611a4b81611a25565b92915050565b600060208284031215611a6757611a666117a8565b5b6000611a7584828501611a3c565b91505092915050565b611a8781611844565b82525050565b600082825260208201905092915050565b6000611aa982611865565b611ab38185611a8d565b9350611ac3818560208601611881565b611acc816118ab565b840191505092915050565b611ae08161196c565b82525050565b611aef816117b2565b82525050565b60008115159050919050565b611b0a81611af5565b82525050565b600060a083016000830151611b286000860182611a7e565b5060208301518482036020860152611b408282611a9e565b9150506040830151611b556040860182611ad7565b506060830151611b686060860182611ae6565b506080830151611b7b6080860182611b01565b508091505092915050565b60006020820190508181036000830152611ba08184611b10565b905092915050565b611bb181611af5565b82525050565b600060a082019050611bcc6000830188611856565b8181036020830152611bde81876118bc565b9050611bed6040830186611976565b611bfa6060830185611815565b611c076080830184611ba8565b9695505050505050565b600080fd5b600080fd5b600080fd5b60008083601f840112611c3657611c35611c11565b5b8235905067ffffffffffffffff811115611c5357611c52611c16565b5b602083019150836001820283011115611c6f57611c6e611c1b565b5b9250929050565b60008060208385031215611c8d57611c8c6117a8565b5b600083013567ffffffffffffffff811115611cab57611caa6117ad565b5b611cb785828601611c20565b92509250509250929050565b6000602082019050611cd86000830184611856565b92915050565b611ce781611844565b8114611cf257600080fd5b50565b600081359050611d0481611cde565b92915050565b600060208284031215611d2057611d1f6117a8565b5b6000611d2e84828501611cf5565b91505092915050565b611d408161194b565b82525050565b600061010083016000830151611d5f6000860182611ae6565b506020830151611d726020860182611a7e565b5060408301518482036040860152611d8a8282611a9e565b9150506060830151611d9f6060860182611ae6565b506080830151611db26080860182611ae6565b5060a0830151611dc560a0860182611d37565b5060c0830151611dd860c0860182611ad7565b5060e0830151611deb60e0860182611ae6565b508091505092915050565b60006020820190508181036000830152611e108184611d46565b905092915050565b60008060408385031215611e2f57611e2e6117a8565b5b6000611e3d858286016117d3565b9250506020611e4e85828601611a3c565b9150509250929050565b600080fd5b7f4e487b7100000000000000000000000000000000000000000000000000000000600052604160045260246000fd5b611e95826118ab565b810181811067ffffffffffffffff82111715611eb457611eb3611e5d565b5b80604052505050565b6000611ec761179e565b9050611ed38282611e8c565b919050565b600067ffffffffffffffff821115611ef357611ef2611e5d565b5b611efc826118ab565b9050602081019050919050565b82818337600083830152505050565b6000611f2b611f2684611ed8565b611ebd565b905082815260208101848484011115611f4757611f46611e58565b5b611f52848285611f09565b509392505050565b600082601f830112611f6f57611f6e611c11565b5b8135611f7f848260208601611f18565b91505092915050565b60008060408385031215611f9f57611f9e6117a8565b5b600083013567ffffffffffffffff811115611fbd57611fbc6117ad565b5b611fc985828601611f5a565b9250506020611fda85828601611a3c565b9150509250929050565b6000602082019050611ff96000830184611976565b92915050565b7f4e6f7420796f7572207265717565737400000000000000000000000000000000600082015250565b6000612035601083611870565b915061204082611fff565b602082019050919050565b6000602082019050818103600083015261206481612028565b9050919050565b7f4e6f742070656e64696e67000000000000000000000000000000000000000000600082015250565b60006120a1600b83611870565b91506120ac8261206b565b602082019050919050565b600060208201905081810360008301526120d081612094565b9050919050565b600081905092915050565b50565b60006120f26000836120d7565b91506120fd826120e2565b600082019050919050565b6000612113826120e5565b9150819050919050565b7f526566756e64206661696c656400000000000000000000000000000000000000600082015250565b6000612153600d83611870565b915061215e8261211d565b602082019050919050565b6000602082019050818103600083015261218281612146565b9050919050565b7f4e487b7100000000000000000000000000000000000000000000000000000000600052602260045260246000fd5b600060028204905060018216806121d057607f821691505b6020821081036121e3576121e2612189565b5b50919050565b7f4e6f74206f776e65720000000000000000000000000000000000000000000000600082015250565b600061221f600983611870565b915061222a826121e9565b602082019050919050565b6000602082019050818103600083015261224e81612212565b9050919050565b7f456d7074792070726f6d70740000000000000000000000000000000000000000600082015250565b600061228b600c83611870565b915061229682612255565b602082019050919050565b600060208201905081810360008301526122ba8161227e565b9050919050565b7f4e487b7100000000000000000000000000000000000000000000000000000000600052601160045260246000fd5b60006122fb826117b2565b91507fffffffffffffffffffffffffffffffffffffffffffffffffffffffffffffffff820361232d5761232c6122c1565b5b600182019050919050565b60008190508160005260206000209050919050565b60006020601f8301049050919050565b600082821b905092915050565b60006008830261239a7fffffffffffffffffffffffffffffffffffffffffffffffffffffffffffffffff8261235d565b6123a4868361235d565b95508019841693508086168417925050509392505050565b6000819050919050565b60006123e16123dc6123d7846117b2565b6123bc565b6117b2565b9050919050565b6000819050919050565b6123fb836123c6565b61240f612407826123e8565b84845461236a565b825550505050565b600090565b612424612417565b61242f8184846123f2565b505050565b5b818110156124535761244860008261241c565b600181019050612435565b5050565b601f8211156124985761246981612338565b6124728461234d565b81016020851015612481578190505b61249561248d8561234d565b830182612434565b50505b505050565b600082821c905092915050565b60006124bb6000198460080261249d565b1980831691505092915050565b60006124d483836124aa565b9150826002028217905092915050565b6124ed82611865565b67ffffffffffffffff81111561250657612505611e5d565b5b61251082546121b8565b61251b828285612457565b600060209050601f83116001811461254e576000841561253c578287015190505b61254685826124c8565b8655506125ae565b601f19841661255c86612338565b60005b828110156125845784890151825560018201915060208501945060208101905061255f565b868310156125a1578489015161259d601f8916826124aa565b8355505b6001600288020188555050505b505050505050565b60006125c28385611870565b93506125cf838584611f09565b6125d8836118ab565b840190509392505050565b600060408201905081810360008301526125fe8185876125b6565b905061260d6020830184611815565b949350505050565b7f416c72656164792076616c696461746564000000000000000000000000000000600082015250565b600061264b601183611870565b915061265682612615565b602082019050919050565b6000602082019050818103600083015261267a8161263e565b9050919050565b7f50726f6f6620646f6573206e6f74206578697374000000000000000000000000600082015250565b60006126b7601483611870565b91506126c282612681565b602082019050919050565b600060208201905081810360008301526126e6816126aa565b9050919050565b60006126f8826117b2565b9150612703836117b2565b925082820190508082111561271b5761271a6122c1565b5b92915050565b7f4e6f7420617574686f72697a6564206167656e74000000000000000000000000600082015250565b6000612757601483611870565b915061276282612721565b602082019050919050565b600060208201905081810360008301526127868161274a565b9050919050565b7f52657175657374206e6f7420666f756e64000000000000000000000000000000600082015250565b60006127c3601183611870565b91506127ce8261278d565b602082019050919050565b600060208201905081810360008301526127f2816127b6565b9050919050565b7f5061796f7574206661696c656400000000000000000000000000000000000000600082015250565b600061282f600d83611870565b915061283a826127f9565b602082019050919050565b6000602082019050818103600083015261285e81612822565b9050919050565b600060408201905061287a6000830185611976565b6128876020830184611815565b9392505050565b60008160601b9050919050565b60006128a68261288e565b9050919050565b60006128b88261289b565b9050919050565b6128d06128cb82611844565b6128ad565b82525050565b600081905092915050565b60006128ec82611865565b6128f681856128d6565b9350612906818560208601611881565b80840191505092915050565b6000819050919050565b61292d6129288261196c565b612912565b82525050565b6000819050919050565b61294e612949826117b2565b612933565b82525050565b600061296082876128bf565b60148201915061297082866128e1565b915061297c828561291c565b60208201915061298c828461293d565b60208201915081905095945050505050565b60006040820190506129b36000830185611856565b81810360208301526129c581846118bc565b9050939250505056fea2646970667358221220bc45bd44ad7242135ce5d827683a0f82b50e0e70f2da9900aa12df750e41c14a64736f6c63430008180033",
  "linkReferences": {},
  "deployedLinkReferences": {}
}